:020000040000FA
:10000000780200200D030000150300001703000014
:10001000190300001B0300001D0300000000000086
:100020000000000000000000000000001F030000AE
:10003000210300000000000023030000D10900009C
:1000400027030000290300002B0300002D030000FC
:100050002F030000310300003303000035030000CC
:1000600037030000390300003B0300003D0300009C
:100070003F0300004103000043030000450300006C
:1000800047030000490300004B0300004D0300003C
:100090004F0300005103000053030000550300000C
:1000A00057030000590300005B0300005D030000DC
:1000B0005F030000610300006303000065030000AC
:1000C00067030000690300006B0300006D0300007C
:1000D0006F0300007103000073030000750300004C
:1000E0007703000079030000000000007B0300009C
:1000F0007D0300007F0300008103000083030000F4
:100100008503000087030000890300008B030000C3
:1001100000000000000000008D0300008F030000BD
:100120009103000093030000950300009703000073
:10013000990300009B0300009D0300009F03000043
:1001400000000000000000000000000000000000AF
:10015000A1030000A3030000A5030000A703000003
:10016000000000000000000000000000000000008F
:10017000000000000000000000000000000000007F
:10018000000000000000000000000000000000006F
:10019000000000000000000000000000000000005F
:1001A000000000000000000000000000000000004F
:1001B000A9030000AB030000AD030000AF03000083
:1001C000B1030000B3030000B5030000B703000053
:1001D000B9030000BB030000BD030000BF03000023
:1001E000C1030000C3030000C503000000000000BD
:1001F00000000000C7030000C9030000CB0300009B
:10020000CD030000CF03000000000000000000004C
:10021000D1030000D3030000D5030000D703000082
:10022000D9030000DB030000DD030000DF03000052
:10023000E1030000E3030000E5030000E703000022
:10024000E9030000EB030000ED030000EF030000F2
:10025000F1030000F3030000F5030000F7030000C2
:10026000F9030000FB030000FD03000000F002F8AA
:1002700000F03CF80AA090E8000C82448344AAF104
:100280000107DA4501D100F031F8AFF2090EBAE802
:100290000F0013F0010F18BFFB1A43F001031847BA
:1002A0003808000058080000103A24BF78C878C108
:1002B000FAD8520724BF30C830C144BF04680C606C
:1002C000704700000023002400250026103A28BFB4
:1002D00078C1FBD8520728BF30C148BF0B607047B8
:1002E0001FB500F0EBFB1FBD10B510BD00F09BF873
:1002F0001146FFF7F5FF00F095FB00F0B9F803B4E5
:10030000FFF7F2FF03BC00F0C1F800003F48804750
:100310003F480047FEE7FEE7FEE7FEE7FEE7FEE7B1
:10032000FEE7FEE7FEE7FEE7FEE7FEE7FEE7FEE7A5
:10033000FEE7FEE7FEE7FEE7FEE7FEE7FEE7FEE795
:10034000FEE7FEE7FEE7FEE7FEE7FEE7FEE7FEE785
:10035000FEE7FEE7FEE7FEE7FEE7FEE7FEE7FEE775
:10036000FEE7FEE7FEE7FEE7FEE7FEE7FEE7FEE765
:10037000FEE7FEE7FEE7FEE7FEE7FEE7FEE7FEE755
:10038000FEE7FEE7FEE7FEE7FEE7FEE7FEE7FEE745
:10039000FEE7FEE7FEE7FEE7FEE7FEE7FEE7FEE735
:1003A000FEE7FEE7FEE7FEE7FEE7FEE7FEE7FEE725
:1003B000FEE7FEE7FEE7FEE7FEE7FEE7FEE7FEE715
:1003C000FEE7FEE7FEE7FEE7FEE7FEE7FEE7FEE705
:1003D000FEE7FEE7FEE7FEE7FEE7FEE7FEE7FEE7F5
:1003E000FEE7FEE7FEE7FEE7FEE7FEE7FEE7FEE7E5
:1003F000FEE7FEE7FEE7FEE7FEE7FEE7FEE70000BA
:1004000004480549034A054B70470000150A0000DF
:100410006D020000780000207802002078000020A3
:10042000704770477047754600F02CF8AE460500DF
:100430006946534620F00700854618B020B5FFF7FF
:10044000DFFFBDE820404FF000064FF000074FF0FF
:1004500000084FF0000BAC46ACE8C009ACE8C0099E
:10046000ACE8C009ACE8C00921F007018D4670472F
:1004700010B50446AFF300802046BDE81040FFF7FA
:100480003EBF0000004870470800002001491820C6
:10049000ABBEFEE7260002007047000080480169FD
:1004A00021F000410161016821F001010160016852
:1004B00021F010010160016821F020010160016854
:1004C00041F040010160016821F080010160016894
:1004D00041F480710160016821F4007101600168DC
:1004E00041F480610160016841F4006101600168CC
:1004F00041F400510160016821F48001016001694B
:1005000021F000410161D0F8A01521F00101C0F8EF
:10051000A015D0F8A01521F00201C0F8A01561487F
:10052000016821F001010160016821F00201016010
:10053000016821F004010160016821F008010160F7
:10054000016821F010010160016821F020010160C3
:10055000416821F001014160416821F002014160E0
:10056000416821F004014160416821F008014160C7
:10057000416821F010014160416841F02001416073
:10058000D0F80E1041F00101C0F80E10016921F001
:1005900001010161416921F001014161416921F0DD
:1005A00002014161416921F004014161416921F089
:1005B00008014161416921F010014161416921F067
:1005C00020014161416921F040014161416921F00F
:1005D00080014161816921F001018161816921F01E
:1005E00002018161816921F004018161816921F049
:1005F00008018161C16921F00101C161C16921F076
:100600000201C161C16921F00401C161C16921F028
:100610000801C161416A21F001014162016B21F0D1
:1006200001010163016B21F002010163416B21F0C3
:1006300001014163416B21F002014163816B21F0B3
:1006400001018163C16B21F00101C163C16B21F024
:100650000201C163016C21F001010164016C21F010
:1006600002010164416D21F001014165816D21F0BC
:1006700001018165816D21F002018165816D21F0AB
:1006800004018165816D21F008018165816D21F092
:1006900010018165816D21F020018165704700BFE7
:1006A00060E00F4004E60F409748016821F0010127
:1006B0000160016821F002010160016821F004017C
:1006C0000160016821F008010160016821F010015A
:1006D0000160016821F020010160016821F0400102
:1006E0000160016821F0800101608848016821F003
:1006F00002010160016821F002010160016821F03E
:1007000004010160016821F008010160016821F025
:1007100010010160016821F020010160016821F0F1
:1007200040010160016821F08001016078480168A2
:1007300021F002010160016821F0020101600168FD
:1007400021F004010160016821F0080101600168E5
:1007500021F010010160016821F0200101600168B1
:1007600021F040010160016821F0800101606948C9
:10077000016821F002010160016821F002010160BD
:10078000016821F004010160016821F008010160A5
:10079000016821F010010160016821F02001016071
:1007A000016821F040010160016821F080010160D1
:1007B0005948016821F002010160016821F002013D
:1007C0000160016821F004010160016821F0080165
:1007D0000160016821F010010160016821F0200131
:1007E00001604E49D1F8FC2042F00102C1F8FC2022
:1007F0000A6822F001020A6051F8202C22F001025E
:1008000041F8202CD1F8F02042F00102C1F8F0208C
:10081000D1F8F42022F00102C1F8F420D1F8EC2044
:1008200022F00102C1F8EC20D0F8E02E42F00102E3
:10083000C0F8E02ED1F8FC2042F00202C1F8FC2002
:100840000A6822F002020A6051F8202C42F00202EB
:1008500041F8202CD1F8E02022F00202C1F8E0207B
:10086000D1F8E42042F00202C1F8E420D1F8E820F7
:1008700022F00202C1F8E820D1F8FC2022F00402A4
:10088000C1F8FC20D1F8FC2022F00802C1F8FC20BD
:10089000D1F8FC2042F01002C1F8FC200A6822F0D6
:1008A00010020A6051F8202C22F0100241F8202C8E
:1008B000D1F8F02042F01002C1F8F020D1F8F42075
:1008C00022F01002C1F8F420D1F8EC2022F010023E
:1008D000C1F8EC20D0F8E02E42F01002C0F8E02E73
:1008E000D1F8FC0020F02000C1F8FC00D1F8FC0099
:1008F00020F04000C1F8FC00D1F8FC0020F080009E
:10090000C1F8FC00704700BF1C8505401C950540E0
:100910001CA505401CB505401CC5054020D405405C
:1009200062B661B64FF0000484F31188704700008E
:100930000E48016841F400110160016841F4005162
:100940000160016841F020010160416841F00051FF
:100950004160816841F000518160816841F400117B
:100960008160816841F020018160704718ED00E0EE
:100970000248016841F002010160704700D405405F
:100980004B48016821F00201016070474848016846
:1009900041F002010160704747484278017822B176
:1009A00021B1816801318160704701B170474168B0
:1009B00001314160704700BF1148016841F00201F8
:1009C000016070470E48016841F001010160704705
:1009D0000B4800680E480068004700BF08480168DF
:1009E00041F004010160016821F00101016001682A
:1009F00021F00201016003494160002181607047DC
:100A000010E000E00071020001490860704700BF7B
:100A1000740000200248016841F4700101607047D1
:100A200088ED00E0FFF77CFFFFF782FFFFF736FD60
:100A3000FFF73AFEFFF79CFF1C48FFF7E5FFFFF7C3
:100A4000CDFFFFF7B9FFFFF7BDFF194C194D1A4F46
:100A500064264FF0000840F201192068C00705D154
:100A60002868013028602068C007FCD021686868C9
:100A7000C90604D4013068602168C906FCD57968CC
:100A8000704381420BD22868B96870438142E4D335
:100A9000A7F80080C7F80880FFF772FFDDE7A7F826
:100AA0000090C7F80480FFF771FFD6E799090000AE
:100AB000FCD305400000002068000020F1EE100A81
:100AC0004FF6FF71C0F2C03120EA010040F04070E3
:100AD000E1EE100A70470000F80A00000000002054
:100AE00008000000A8020000000B00000800002021
:100AF00070020000C40200000100000001000000BC
:040000050000030DE7
:00000001FF
