:020000040000FA
:10000000800200200D03000015030000170300000C
:10001000190300001B0300001D0300000000000086
:100020000000000000000000000000001F030000AE
:10003000210300000000000023030000B90A0000B3
:1000400027030000290300002B0300002D030000FC
:100050002F030000310300003303000035030000CC
:1000600037030000390300003B0300003D0300009C
:100070003F0300004103000043030000450300006C
:1000800047030000490300004B0300004D0300003C
:100090004F0300005103000053030000550300000C
:1000A00057030000590300005B0300005D030000DC
:1000B0005F030000610300006303000065030000AC
:1000C00067030000690300006B0300006D0300007C
:1000D0006F0300007103000073030000750300004C
:1000E0007703000079030000000000007B0300009C
:1000F0007D0300007F0300008103000083030000F4
:100100008503000087030000890300008B030000C3
:1001100000000000000000008D0300008F030000BD
:100120009103000093030000950300009703000073
:10013000990300009B0300009D0300009F03000043
:1001400000000000000000000000000000000000AF
:10015000A1030000A3030000A5030000A703000003
:10016000000000000000000000000000000000008F
:10017000000000000000000000000000000000007F
:10018000000000000000000000000000000000006F
:10019000000000000000000000000000000000005F
:1001A000000000000000000000000000000000004F
:1001B000A9030000AB030000AD030000AF03000083
:1001C000B1030000B3030000B5030000B703000053
:1001D000B9030000BB030000BD030000BF03000023
:1001E000C1030000C3030000C503000000000000BD
:1001F00000000000C7030000C9030000CB0300009B
:10020000CD030000CF03000000000000000000004C
:10021000D1030000D3030000D5030000D703000082
:10022000D9030000DB030000DD030000DF03000052
:10023000E1030000E3030000E5030000E703000022
:10024000E9030000EB030000ED030000EF030000F2
:10025000F1030000F3030000F5030000F7030000C2
:10026000F9030000FB030000FD03000000F002F8AA
:1002700000F03CF80AA090E8000C82448344AAF104
:100280000107DA4501D100F031F8AFF2090EBAE802
:100290000F0013F0010F18BFFB1A43F001031847BA
:1002A000E8090000080A0000103A24BF78C878C1A5
:1002B000FAD8520724BF30C830C144BF04680C606C
:1002C000704700000023002400250026103A28BFB4
:1002D00078C1FBD8520728BF30C148BF0B607047B8
:1002E0001FB500F0C4FC1FBD10B510BD00F09BF899
:1002F0001146FFF7F5FF00F021FC00F0B9F803B458
:10030000FFF7F2FF03BC00F0C1F800003F48804750
:100310003F480047FEE7FEE7FEE7FEE7FEE7FEE7B1
:10032000FEE7FEE7FEE7FEE7FEE7FEE7FEE7FEE7A5
:10033000FEE7FEE7FEE7FEE7FEE7FEE7FEE7FEE795
:10034000FEE7FEE7FEE7FEE7FEE7FEE7FEE7FEE785
:10035000FEE7FEE7FEE7FEE7FEE7FEE7FEE7FEE775
:10036000FEE7FEE7FEE7FEE7FEE7FEE7FEE7FEE765
:10037000FEE7FEE7FEE7FEE7FEE7FEE7FEE7FEE755
:10038000FEE7FEE7FEE7FEE7FEE7FEE7FEE7FEE745
:10039000FEE7FEE7FEE7FEE7FEE7FEE7FEE7FEE735
:1003A000FEE7FEE7FEE7FEE7FEE7FEE7FEE7FEE725
:1003B000FEE7FEE7FEE7FEE7FEE7FEE7FEE7FEE715
:1003C000FEE7FEE7FEE7FEE7FEE7FEE7FEE7FEE705
:1003D000FEE7FEE7FEE7FEE7FEE7FEE7FEE7FEE7F5
:1003E000FEE7FEE7FEE7FEE7FEE7FEE7FEE7FEE7E5
:1003F000FEE7FEE7FEE7FEE7FEE7FEE7FEE70000BA
:1004000004480549034A054B70470000290B0000CA
:100410006D0200008000002080020020800000208B
:10042000704770477047754600F02CF8AE460500DF
:100430006946534620F00700854618B020B5FFF7FF
:10044000DFFFBDE820404FF000064FF000074FF0FF
:1004500000084FF0000BAC46ACE8C009ACE8C0099E
:10046000ACE8C009ACE8C00921F007018D4670472F
:1004700010B50446AFF300802046BDE81040FFF7FA
:100480003EBF0000004870471000002001491820BE
:10049000ABBEFEE726000200704700004EF270017E
:1004A000C4F20F01086820F0004008604EF26002BC
:1004B000C4F20F02106820F001001060106820F0F4
:1004C00010001060106820F020001060106840F0EC
:1004D00040001060106820F080001060106840F448
:1004E00080701060106820F400701060106840F494
:1004F00080601060106840F400601060106840F484
:1005000000501060106820F480001060086820F02F
:10051000004008604EF20061C4F20F01086820F04C
:1005200001000860086820F0020008604EF20461D3
:10053000C4F20F01086820F001000860086820F08C
:1005400002000860086820F004000860086820F0D5
:1005500008000860086820F010000860086820F0B3
:10056000200008604EF20861C4F20F01086820F014
:1005700001000860086820F002000860086820F0A8
:1005800004000860086820F008000860086820F08F
:1005900010000860086840F0200008604EF2126108
:1005A000C4F20F01086840F0010008604EF21461C7
:1005B000C4F20F01086820F0010008604EF21861D3
:1005C000C4F20F01086820F001000860086820F0FC
:1005D00002000860086820F004000860086820F045
:1005E00008000860086820F010000860086820F023
:1005F00020000860086820F040000860086820F0CB
:10060000800008604EF21C61C4F20F01086820F0FF
:1006100001000860086820F002000860086820F007
:1006200004000860086820F0080008604EF22061AD
:10063000C4F20F01086820F001000860086820F08B
:1006400002000860086820F004000860086820F0D4
:10065000080008604EF22861C4F20F01086820F01B
:10066000010008604EF23461C4F20F01086820F006
:1006700001000860086820F0020008604EF238614E
:10068000C4F20F01086820F001000860086820F03B
:10069000020008604EF23C61C4F20F01086820F0CD
:1006A000010008604EF24061C4F20F01086820F0BA
:1006B00001000860086820F0020008604EF2446102
:1006C000C4F20F01086820F001000860086820F0FB
:1006D000020008604EF25861C4F20F01086820F071
:1006E000010008604EF25C61C4F20F01086820F05E
:1006F00001000860086820F002000860086820F027
:1007000004000860086820F008000860086820F00D
:1007100010000860086820F02000086070470000A2
:10072000B0B548F21C51C4F20501086820F0010080
:100730000860086820F002000860086820F00400E3
:100740000860086820F008000860086820F01000C1
:100750000860086820F020000860086820F0400069
:100760000860086820F08000086049F21C51C4F25B
:100770000501086820F002000860086820F0020007
:100780000860086820F004000860086820F008008D
:100790000860086820F010000860086820F0200059
:1007A0000860086820F040000860086820F08000B9
:1007B00008604AF21C51C4F20501086820F00200EA
:1007C0000860086820F002000860086820F0040053
:1007D0000860086820F008000860086820F0100031
:1007E0000860086820F020000860086820F04000D9
:1007F0000860086820F0800008604BF21C51C4F2C9
:100800000501086820F002000860086820F0020076
:100810000860086820F004000860086820F00800FC
:100820000860086820F010000860086820F02000C8
:100830000860086820F040000860086820F0800028
:1008400008604CF21C51C4F20501086820F0020057
:100850000860086820F002000860086820F00400C2
:100860000860086820F008000860086820F01000A0
:100870000860086820F0200008604DF21C51C4F2A6
:100880000501086840F0010008604DF22044C4F200
:100890000504206820F0010020604DF2004EC4F2F3
:1008A000050EDEF8000020F00100CEF800004DF249
:1008B000105CC4F2050CDCF8000040F00100CCF83C
:1008C00000004DF21453C4F20503186820F0010033
:1008D00018604DF20C52C4F20502106820F00100BD
:1008E0001060086840F002000860206820F00200F4
:1008F0002060DEF8000040F00200CEF800004DF26B
:100900000055C4F20505286820F0020028604DF269
:100910000455C4F20505286840F0020028604DF235
:100920000855C4F20505286820F002002860086810
:1009300020F004000860086820F0080008600868DB
:1009400040F010000860206820F010002060DEF801
:10095000000020F01000CEF80000DCF8000040F0AD
:100960001000CCF80000186820F010001860106823
:1009700020F010001060086820F02000086008686F
:1009800020F040000860086820F080000860B0BDDA
:1009900062B661B64FF0000484F31188704700001E
:1009A0004EF61851CEF20001086840F400100860BD
:1009B000086840F400500860086840F020000860B3
:1009C0004EF61C51CEF20001086840F0005008605D
:1009D0004EF62051CEF20001086840F00050086049
:1009E000086840F400100860086840F020000860C3
:1009F000704700004DF20041C4F20501086840F064
:100A000002000860704700004DF2FC31C4F205019D
:100A1000086820F002000860704700004DF2FC31C9
:100A2000C4F20501086840F0020008607047000049
:100A300040F20000C2F20000007801280FD1FFE769
:100A400040F27000C2F20000007840B9FFE740F2C7
:100A50007801C2F2000108680130086017E040F236
:100A60000000C2F20000007880B9FFE740F2700099
:100A7000C2F200000078012808D1FFE740F27C01B3
:100A8000C2F20001086801300860FFE7FFE7704725
:100A90004EF21001CEF20001086840F0020008603A
:100AA000704700004EF21001CEF20001086840F0DD
:100AB000010008607047000080B54EF21000CEF2D1
:100AC0000000006840F27400C2F200000068804735
:100AD00080BD00004EF21001CEF20001086840F027
:100AE00004000860086820F001000860086820F031
:100AF000020008604EF21401CEF2000147F200102D
:100B0000C0F2020008604EF21801CEF2000100208F
:100B10000860704781B00090009840F27401C2F202
:100B20000001086001B070474EF68851CEF2000116
:100B3000086840F4700008607047000080B582B01B
:100B400000200190FFF724FFFFF72AFFFFF7A6FC24
:100B5000FFF7E6FDFFF74EFF40F63120C0F2000040
:100B6000FFF7D8FFFFF7B6FFFFF792FFFFF79AFFF7
:100B7000FFE74DF2FC30C4F205000068C00790B9F1
:100B8000FFE740F20801C2F2000108680130086086
:100B9000FFE74DF2FC30C4F205000068C00708B959
:100BA000FFE7F6E7FFE74DF2FC30C4F2050000680E
:100BB0000009C00798B9FFE740F20401C2F2000142
:100BC000086801300860FFE74DF2FC30C4F2050010
:100BD00000680009C00708B9FFE7F5E7FFE740F242
:100BE0007800C2F20000006840F20401C2F2000185
:100BF000096864225143884214D3FFE740F2780128
:100C0000C2F200010020086040F27002C2F200024D
:100C10000121117040F20001C2F200010870FFF7DB
:100C2000FDFE23E040F27C00C2F20000006840F2CA
:100C30000801C2F20001096864225143884214D3BA
:100C4000FFE740F27C01C2F200010020086040F2A0
:100C50007001C2F20001087040F20001C2F200010E
:100C600001200870FFF7D0FEFFE7FFE781E7F1EE14
:100C7000100A4FF6FF71C0F2C03120EA010040F0C7
:100C80004070E1EE100A7047A80C00000000002040
:100C90000C000000A8020000B40C000010000020AE
:100CA00070020000C402000001000000010000000A
:040CB000010000003F
:040000050000030DE7
:00000001FF
